:02000004080AE8
:1000000000000A0898470A080000060006000501DB
:080010000402DB070000000000
:040018008C410A0805
:10001C0009480A4908B5884205D0094A824202D0EB
:10002C00121A03F07DFF0748074A0021121A03F049
:10003C009FFF064808BD00BF00000020FC460A08D0
:10004C007400002078000020F0050020F00500204E
:10005C0070B502F095F90025054E064CA41BA408BA
:10006C00A54200D170BD56F8043B98470135F7E71F
:10007C00C8460A08E8460A0800F0A8B908B500F016
:10008C00C5F8BDE8084002F03DB900F0B1BE00F083
:10009C00AFBE00F0B5BE000000210C2008B5024A2E
:1000AC0000F0EAFDFEE700BF110A0A080078B0FA7A
:1000BC0080F0400970470123037070477047006A55
:1000CC000368DB681847704710B50446202102F01E
:1000DC0078FF204610BD000010B50446064B0846BC
:1000EC00994204F10C0404D002F072FF002808BFFE
:1000FC000024204610BD00BF74420A08FFF7C9BF98
:10010C0010B5044603689B689847A368013BA3603D
:10011C002BB923682046BDE81040DB68184710BD9A
:10012C0010B50446006808B100F06AFE204610BD08
:10013C0010B50446094B036001F0EAF9214601F0C1
:10014C0019FC02F009FB02F004FB2046044B40F8BA
:10015C00043B01F0FDFA204610BD00BF48420A08DE
:10016C0030420A0810B50446FFF7E2FF204624216E
:10017C0002F027FF204610BD10B50446406828B198
:10018C004368013B43600BB9FFF7BAFF204610BD33
:10019C0010B58368044613B10322014698472046E4
:1001AC0010BD38B5037B0446022B02D1806900F0E8
:1001BC0027FE256935B12846FFF7EAFF10212846AE
:1001CC0002F0FFFE646944B12046FFF7E1FF2046D0
:1001DC00BDE83840102102F0F4BE38BD0EB410B5A5
:1001EC000023016820208DB00FAA52F8044BCDE9F2
:1001FC000403CDE9004203921E2004AA00F044FD42
:10020C000DB0BDE8104003B07047000038B5114C7C
:10021C0023788BB90A21104800F09EFA00F0D8FD23
:10022C000E4D50B100F0F6FB2A680D49821A0D48AC
:10023C00FFF7D4FF0323237038BD00F0EBFB2B68D2
:10024C00C01A094B9842F7D908490648FFF7C6FF70
:10025C000923F0E788000020C8000020DC00002003
:10026C00A0410A08000100203F7E0500BC410A089D
:10027C0038B50546104C206800F0F0FA00222068D2
:10028C00062100F0FFFA0D49206800F089FF0122D9
:10029C002068042100F0F6FA2968206800F080FF3D
:1002AC00012220680A2100F0EDFA0549206800F0CF
:1002BC0077FF002038BD00BF8C000020E5410A0804
:1002CC00EA410A0810B50A2186B01A4C1A4800F007
:1002DC0043FA642001F0C8FF206800F0BFFA002246
:1002EC002068114600F0CEFA1449206800F058FF3F
:1002FC0001222068002100F0C5FA1149206800F0A5
:10030C004FFF00F087FB044600F084FB031BC72B58
:10031C00FAD9022300930B4B02A8D3E9002300F077
:10032C0003FF02A8FFF7A4FF02A800F04DFE012076
:10033C0006B010BD8C000020C8000020ED410A085A
:10034C00FD410A08B800002038B51020FFF79DFECB
:10035C00044620B102231022272100F017FA064D83
:10036C0020462C6000F024FB286800F039FA28683D
:10037C0000F074FA002038BD8C00002008B50E483F
:10038C0000F064F90D4B0C48196800F0EBF90A21E8
:10039C00094800F0E1F90022094C1146206800F0F0
:1003AC0071FA0849206800F0FBFE00F033FB064BA5
:1003BC00186000F02FFBFCE7C800002000000020B4
:1003CC008C0000200A420A08D800002008B502F070
:1003DC0001F94FF4165102F0DFF8FFF7B5FFFFF704
:1003EC00CDFF70B51426D0E90053044606FB035626
:1003FC00AE4204D0284600F0E7FD1435F8E720683B
:10040C0000F0FEFC204670BD8842F8B504460D464F
:10041C00164616D9904215D2A2F11406751AA1F1FE
:10042C0014072C44B7421CD02CB13146204600F0A6
:10043C0045FE337C2374304600F0C6FD143E143C5C
:10044C00F0E70ED0B5420CD02CB12946204600F076
:10045C0035FE2B7C2374284600F0B6FD143514347D
:10046C00F0E7F8BD00232DE9F041C0E900338360CB
:10047C004F6804469F420E4624DD4FF0140808FBDB
:10048C0007F000F0B5FC0546E0B1D4E9001208FB1A
:10049C000212FFF7B9FF206800F0B2FC2560A760DC
:1004AC00D6E9007308FB0378B84509D039462846CD
:1004BC0000F01EFE3B7C143505F8043C1437F3E7C2
:1004CC00736863602046BDE8F081000070B50024BD
:1004DC008CB080230D220C213B4800F0A1F83B4A44
:1004EC003B49394802F068FD0021012000F0F4FB83
:1004FC00384D394B0220AB602C60AC80AC7100F0F5
:10050C00DBFB324A3549284602F056FDCDE9004462
:10051C00029402F021F90646694603A8FFF7A2FFF0
:10052C0003A906A82E4DFFF79DFF2E4B06A92B60A5
:10053C0009A8FFF797FF09AA1E21281D01F06CFBE3
:10054C0009A8FFF74EFF06A8FFF74BFF264B2E62BC
:10055C002B6003A8FFF745FF244B2B6002F0FCF83F
:10056C004FF4165102F0F2F800F0D2FF294601F0D8
:10057C00E6FA6846FFF735FF144A1D49284602F093
:10058C001BFD2020FFF781FD034650B1194AC0E93D
:10059C00044402600122C0E9012240F201120476F7
:1005AC008281154803F10C02C0E900231349074A64
:1005BC0002F002FD124A1349134801F029FF134BB4
:1005CC0018700CB070BD00BFC8000020780000206F
:1005DC001D060A087C0000200000FFFF2D010A0800
:1005EC009000002030420A0850430A0848420A088A
:1005FC003D010A0860420A08C000002085010A0873
:10060C001D420A08D1020A08F1230A08E000002062
:10061C00704710B50446102102F0D3FC204610BDE3
:10062C000271002282604FF07E5210B5064C202BD6
:10063C0004604171C26005D0402B14BF0123032319
:10064C00837110BD0223FBE784420A0810B50446EF
:10065C000121007902F0F6FB6079002102F0F2FB37
:10066C0020790021BDE8104002F0FDBB2DE9F84FC8
:10067C00044616461F4600F0CDF94FF0000B054618
:10068C00DFF88CA0607902F007FC80B100F0C2F9B1
:10069C00B0EB05086BEB4B09B04579EB070306DAB9
:1006AC0000F0B8F9CAF8000000F08AFBEAE76079BC
:1006BC0002F0F2FB064648BB01222179607902F078
:1006CC00FEFB012221790746607902F0F8FB01223A
:1006DC0005462179607902F0F2FB8046A379B3429A
:1006EC0009D90121207902F0BEFB0021207902F00A
:1006FC00BAFB0136F2E72D0245EA074545EA080543
:10070C0047F3C01045EA0060BDE8F88F0020FBE716
:10071C00BC0500202DE9F04107460C46B9B1002577
:10072C002E46DFF830804FF47A7200233846FFF7FC
:10073C009DFF064400F06EF90135C8F8000000F08A
:10074C003FFBA542EFD196FBF5F0BDE8F0810846E2
:10075C00FBE700BFBC05002010B50446FFF7DAFF2D
:10076C00A06010BD38B50C4605460021204603F0AC
:10077C00FDF908B14FF07E54EC6038BD704710B5F0
:10078C000446102102F01DFC204610BD70B500255A
:10079C00034E45600660017242738373C57370BD6E
:1007AC0094420A0838B504460D4602F0DDFB217A66
:1007BC0002F046F8022000F025F902F0D5FBE17BAF
:1007CC00036829439B689847022000F01BF902F04C
:1007DC00CBFB02F03DF8BDE83840022000F012B926
:1007EC0008230021C373FFF7DDBF38B505460C465F
:1007FC0041F00401FFF7D6FF012000F003F9284671
:10080C0004F0FB01FFF7CEFFBDE83840322000F0CA
:10081C00F9B838B504460D46FFF7C4FF2946204603
:10082C00BDE83840FFF7E1BF70B50D4614460646EB
:10083C0021F00F011143FFF7ECFF44EA051130469C
:10084C00BDE87040C9B2FFF7E4BF08B50122FFF75D
:10085C00EBFF002008BD0022FFF7E6BF08B5012121
:10086C00FFF7F9FFBDE808404FF4FA6000F0CAB892
:10087C0008B50221FFF7EFFFBDE808404FF4FA601E
:10088C0000F0C0B87FB5064615460C460C4B0DF172
:10089C00100C0FCB0CE90F00327B04ABAA423CBF0F
:1008AC0002F1FF32D5B203EB850555F8101C30462A
:1008BC00214461F07F01C9B2FFF7CDFF04B070BDD8
:1008CC00A4420A0808B5817A41F00402827241F010
:1008DC000C01FFF7C0FF08BD10B5012A88BF417A93
:1008EC00044684BF41F00801417202732BB1012A06
:1008FC0002BF437A43F004034372322001F0B4FC8C
:10090C00E17B2046FFF74EFF4FF47A7001F0ACFC10
:10091C0030212046FFF77DFF41F2941000F072F871
:10092C0030212046FFF775FF41F2941000F06AF871
:10093C0030212046FFF76DFF962000F063F820462B
:10094C002021FFF766FF617A204641F02001FFF776
:10095C0082FF04232046A372FFF7B4FF2046FFF763
:10096C007DFF02232046E3720621FFF774FF204629
:10097C00BDE81040FFF77CBF10B5044602F0F4FA56
:10098C000A4901F04FFF02F0EFFA012101F04EFF8E
:10099C0002F0EAFA01F04EFF00232046A27B617BB5
:1009AC006372BDE81040FFF797BF00BFA08601003F
:1009BC00FFF7E2BF08B5024B1B689B68019308BDAB
:1009CC00B001060808B5024B1B68DB68019308BD33
:1009DC00B001060808B5024B1B681B69019308BDE2
:1009EC00B001060808B5024B1B685B69019308BD92
:1009FC00B001060808B5024B1B685B68019308BD83
:100A0C009C01060808B5024B1B68DB68019308BD06
:100A1C009C01060808B5024B1B685B69019308BD75
:100A2C009C01060808B5024B1B685B6C019308BD62
:100A3C00D001060808B5024B1B689B6C019308BDDE
:100A4C00D001060808B5024B1B68DB6C019308BD8E
:100A5C00D001060808B5024B1B685B6D019308BDFD
:100A6C00D001060808B5024B1B689B69019308BDB1
:100A7C00C401060808B5024B1B681B6A019308BD2C
:100A8C00C401060808B5024B1B685B6A019308BDDC
:100A9C00C401060808B5024B1B689B6A019308BD8C
:100AAC00C401060808B5024B1B68DB6A019308BD3C
:100ABC00C401060808B5024B1B681B6B019308BDEB
:100ACC00C401060808B5024B1B685B6B019308BD9B
:100ADC00C401060808B5024B1B689B6B019308BD4B
:100AEC00C401060808B5024B1B681B6C019308BDBA
:100AFC00C401060808B5024B1B68DB6C019308BDEA
:100B0C00C401060808B5024B1B681B6C019308BD99
:100B1C00AC01060808B5024B1B689B6C019308BD21
:100B2C00AC01060808B5024B1B68DB6C019308BDD1
:100B3C00AC01060808B5024B1B689B6D019308BD00
:100B4C00AC01060808B5024B1B68DB6D019308BDB0
:100B5C00AC01060808B5024B1B681B6E019308BD5F
:100B6C00AC01060808B5024B1B685B6E019308BD0F
:100B7C00AC01060808B5024B1B689B6E019308BDBF
:100B8C00AC01060808B5024B1B68DB6E019308BD6F
:100B9C00AC01060808B5024B1B681B6F019308BD1E
:100BAC00AC01060808B5024B1B685B6F019308BDCE
:100BBC00AC01060808B5034B1B68D3F880300193D1
:100BCC0008BD0000AC01060808B5024B1B68DB69C8
:100BDC00019308BDB401060808B5024B1B681B6ADB
:100BEC00019308BDB401060808B5024B1B681B68CD
:100BFC00019308BDD801060808B5024B1B685B6859
:100C0C00019308BDD801060808B5024B1B689B6808
:100C1C00019308BDD801060808B5024B1B681B6977
:100C2C00019308BDD801060808B5024B1B685B6927
:100C3C00019308BDD801060808B5024B1B689B69D7
:100C4C00019308BDD801060808B5024B1B68DB6987
:100C5C00019308BDD801060808B5024B1B681B6A36
:100C6C00019308BDD801060808B5024B1B689B6CA4
:100C7C00019308BDC001060808B5024B1B685B6BED
:100C8C00019308BDA801020808B5024B1B685B6DF7
:100C9C00019308BDA801020808B5024B1B68DB6E66
:100CAC00019308BDA801020808B5024B1B681B6F15
:100CBC00019308BDA801020808B5024B1B685B68CC
:100CCC00019308BDA401060808B5024B1B685B69BB
:100CDC00019308BDA401060808B5024B1B68DB6A2A
:100CEC00019308BDA401060808B5034B1B68D3F893
:100CFC009030019308BD0000A401060808B5034B11
:100D0C001B68D3F89C30019308BD0000A4010608B1
:100D1C0008B5024B1B685B68019308BDC801060847
:100D2C0008B5024B1B689B68019308BDC8010608F7
:100D3C0008B5024B1B68DB68019308BDC8010608A7
:100D4C0008B5024B1B681B69019308BDC801060856
:100D5C0008B5024B1B685B69019308BDC801060806
:100D6C0008B5024B1B689B69019308BDC8010608B6
:100D7C0008B5024B1B68DB69019308BDC801060866
:100D8C0008B5024B1B681B6A019308BDC801060815
:100D9C0008B5024B1B681B6B019308BDC801060804
:100DAC0008B5024B1B685B6B019308BDC8010608B4
:100DBC0008B5024B1B685B68019308BDCC010608A3
:100DCC0008B5024B1B689B68019308BDCC01060853
:100DDC0008B5024B1B685B69019308BDCC01060882
:100DEC0008B5024B1B68DB6B019308BDCC010608F0
:100DFC0008B5024B1B681B68019308BDA0010608CF
:100E0C0008B5024B1B685B68019308BDA00106087E
:100E1C0008B5024B1B689B68019308BDA00106082E
:100E2C0008B5024B1B685B6A019308BDA00106085C
:100E3C0008B5024B1B685B6C019308BDA00106084A
:100E4C0070B5002604460D4640F8086FFFF7EAFD22
:100E5C0028462570FFF7B8FE2046666070BD00007E
:100E6C000222002010B5084B084C1A60084B206079
:100E7C00A080A071A360FFF71FFF2046BDE81040C3
:100E8C00044A054902F098B8F0000020E400002064
:100E9C000000FFFF780000202D010A0810B5044661
:100EAC0003F0BBF8431E20462344834206D9027844
:100EBC00197800F8011B03F80129F6E710BD70B58D
:100ECC000C46911E222922D8254668B1B0FBF2F6B9
:100EDC0002FB1600C1B2092894BF30315731C9B298
:100EEC00304605F8011BF0E72A4630212344934293
:100EFC0002D902F8011BFAE75A1BAB4238BF002299
:100F0C0000232046AB54FFF7C9FF204670BD0020DC
:100F1C00FCE700002DE9F04707460D4616461C4637
:100F2C00002200233846294602F094FD20B12D23DF
:100F3C0005F1004504F8013B00234FF0010A0A2299
:100F4C00D9B28E4203D902FB0AFA0133F8E75046B4
:100F5C0002F0A4FA3A462B4602F00AFB8046894678
:100F6C0002F04EFE05460F4602F0CCFA02460B4646
:100F7C004046494602F044F90022124B02F07EFD35
:100F8C0010B1013547F10007524628463946D317B0
:100F9C0002F01EFE0123154621460A22FFF78FFFA1
:100FAC006EB1204603F039F82E23211823540A225F
:100FBC0033462846BDE8F0470131FFF780BFBDE856
:100FCC00F08700BF0000E03F10B504460068FFF753
:100FDC0017FF204610BD10B50446006808B1FFF796
:100FEC000FFF0023C4E90133236010BD38B504465C
:100FFC000D4600680131FFF70BFF10B1C4E9000585
:10100C00012038BD10B50368044623B143688B42F8
:10101C0001D3012010BD2046FFF7E8FF0028F9D0CE
:10102C00A368002BF5D122681370F2E770B50E4659
:10103C00114604461546FFF7E5FF20B92046FFF799
:10104C00CAFF204670BD2A4631462068A56002F0D2
:10105C0067FF00212268A368D154F2E738B500235A
:10106C0004460D46C0E900338360037339B108466A
:10107C0002F0D3FF294602462046FFF7D7FF204651
:10108C0038BD38B5054600680C4668B16A688B688F
:10109C009A4207D3096802F0B8FFA368AB6000233B
:1010AC00A36038BDFFF7ACFE23682B6063686B60F0
:1010BC00A368AB600023C4E90033F1E7002310B54B
:1010CC000446C0E9003383600373FFF7DAFF204660
:1010DC0010BD884210B50B46044604D0096821B1F6
:1010EC009A68FFF7A3FF204610BDFFF774FFFAE7DD
:1010FC00002310B50446C0E9003383600373FFF787
:10110C00E8FF204610BD38B505460C4649B10846E7
:10111C0002F083FF214602462846FFF787FF284648
:10112C0038BDFFF758FFFAE710B5194604460023FF
:10113C008AB01046C4E900339DF83020A3602373B5
:10114C0001ABFFF7E7FE204601A9FFF7DCFF2046C5
:10115C000AB010BDF8B506460D4600248F18BD42E6
:10116C000CD0336830469B6815F8011B9847031E5A
:10117C0001DB1C44F3E7002C08BF1C462046F8BDDD
:10118C0070B505460C46084649B102F046FF2B687F
:10119C00024621462846BDE87040DB68184770BD02
:1011AC0008B5FFF7EDFF08BD03689B68184738B515
:1011BC000D210546FFF7F8FF0A2104462846FFF7E4
:1011CC00F3FF204438BD0023012A98BF0A2230B512
:1011DC008BB00C468DF8243009A92546B4FBF2F4EB
:1011EC0004FB1253DBB2092B94BF30333733DBB221
:1011FC00AA4201F8013DF0D9FFF7C2FF0BB030BD98
:10120C002DE9F04186B000AF05460E46381D14217D
:10121C0014463B60FFF704FE13280ED82846391DF0
:10122C00FFF7AEFF04461EB12846FFF7C0FF04448B
:10123C0020461837BD46BDE8F08100F1080323F0C5
:10124C000703E846ADEB030D2246411C3B6868469C
:10125C00FFF7E6FD69462846FFF792FF0446C546B0
:10126C00E1E7002340681A461946FFF771BD806814
:10127C000368DB6818477047084611B10B685B6858
:10128C001847704770477047704738B504460D468D
:10129C0000682E2102F0A5FE23680246C01A2860C1
:1012AC0020B1137803B101322068226038BD10B52B
:1012BC0004460C2101F085FE204610BD10B50446F5
:1012CC00042101F07EFE204610BD10B50446042119
:1012DC0001F077FE204610BD08B502F08CFEB0FA86
:1012EC0080F0400908BD10B50C4601F073F984423A
:1012FC0005D101F06FF9BDE8104001F051B901F0D2
:10130C00A7F9844202D101F0A3F9F4E701F024FA21
:10131C00844205D101F020FABDE8104001F019BA61
:10132C002CB123682046BDE810405B68184710BDFF
:10133C0038B5054608460C4602F06FFE21460246BB
:10134C002846BDE8384001F020BD70B5044608467B
:10135C000D4602F062FE2368024629462046BDE88F
:10136C007040DB68184707B503688DF80710012239
:10137C00DB680DF10701984703B05DF804FB0EB470
:10138C0003B503AB53F8042B0021006A0193FFF75C
:10139C0037FF02B05DF804EB03B070472DE9F74F4F
:1013AC004FF01408D0E9009517464C4608FB05F59C
:1013BC000093AB10174D5D43002D23DD6E1008FB21
:1013CC0006F004EB000ABAF804B03A465F4528BFB1
:1013DC005A462058019102F028FE0123019978B950
:1013EC005F4503D1009A13703546E5E78CBF0120A9
:1013FC0000200028F8D0AE1B0AF11404013EF3E7DC
:10140C00C00FF6E7A4EB09040248A410604303B034
:10141C00BDE8F08FCDCCCCCC7FB50369067E0191B5
:10142C0003B3F9B1002500F10C04039503A901A83D
:10143C00FFF72BFF0146A8B10DF10B032046039AD1
:10144C008DF80B50FFF7AAFF9DF80B3053B1142306
:10145C00246803FB0044B4F906300834002BA8BF01
:10146C00DEB2E3E7304604B070BD000010B50A4CA4
:10147C002378BFF35B8FDB070BD42046FEF716FEF9
:10148C0038B12046FEF717FE044A0549054801F01D
:10149C0093FD044810BD00BFF80000207800002028
:1014AC0093120A080400002010B50A4C2378BFF3ED
:1014BC005B8FDB070BD42046FEF7F8FD38B12046D6
:1014CC00FEF7F9FD044A0549054801F075FD04488D
:1014DC0010BD00BFFC0000207800002091120A080B
:1014EC000800002038B500250446C0E90055C0E9C5
:1014FC0004558560856140F8245FFFF793FAFFF788
:10150C00B5FFE061FFF7D0FF25732062204638BDA0
:10151C0010B50B4C2378BFF35B8FDB070ED4204642
:10152C00FEF7C4FD50B10748FFF7DCFF2046FEF77D
:10153C00C2FD054A0549034801F03EFD014810BDB6
:10154C00F400002004010020780000200B1A0A0887
:10155C000023024A02490348FFF7A6BBE9180A0810
:10156C0075180A08F5170A0800231A461946184672
:10157C00FFF79ABB38B5046805467CB16368013B3C
:10158C0063605BB9236820469B689847A368013B5E
:10159C00A3601BB923682046DB689847284638BDF2
:1015AC000B68036013B15A6801325A60704737B543
:1015BC0004460D6951F8043B01A80093FFF7F0FFB6
:1015CC006A462946204601F08BFA01A8FFF7D2FFA4
:1015DC00204603B030BD37B504468D6851F8043B46
:1015EC0001A80093FFF7DCFF6A462946204601F06C
:1015FC00F3FA01A8FFF7BEFF204603B030BD37B5A4
:10160C000446CD6851F8043B01A80093FFF7C8FFCE
:10161C006A462946204601F0BBFA01A8FFF7AAFF4B
:10162C00204603B030BD000070B58AB00D460146AF
:10163C0004A8FFF7D0FF144E04A801F0E5FAE8B1B6
:10164C00684604A9FFF7DBFF31460298FFF744FE1A
:10165C00044610B12C1E18BF012401A8FFF78AFF05
:10166C00002CE9D0684604A9FFF7A1FF684601F0F9
:10167C006EFA286001A8FFF77DFFDDE705A8FFF7EC
:10168C0079FF0AB070BD00BFB4420A0837B50C46EA
:10169C0019492046154602F0AEFC48B900F09AFFF5
:1016AC004FF4165100F078FF00F094FF03B030BDFA
:1016BC002046124902F09FFC40B900F0C9FF4FF4DC
:1016CC00165100F069FF00F0C3FFEFE720460C490C
:1016DC0002F091FC70B94FF4165301A928460193FE
:1016EC00FFF7A2FF01F038F8019901F02FF801F093
:1016FC0033F8DBE70020D9E7B9420A08C0420A08F0
:10170C00C3420A0870B51426D0E90053044606FB00
:10171C000356AE4205D005F10800FFF7F3FF143570
:10172C00F7E72068FFF76CFB204670BD70B50446E8
:10173C00D0E9005305EB0316AE4204D02846FFF760
:10174C0043FC1035F8E72068FFF75AFB204670BDC4
:10175C0010B504460C30FFF7D5FF2046FFF7E6FF27
:10176C00204610BD10B50446034B40F8043BFFF770
:10177C00EFFF204610BD00BF30420A0810B50446EA
:10178C00FFF7F0FF2046242101F01BFC204610BD82
:10179C0010B50446024B0360FFF7E4FF204610BD72
:1017AC0068430A0810B50446FFF7F2FF20462421CF
:1017BC0001F007FC204610BD0022C0E90022826027
:1017CC0010B50C680A6004604C684A6044608C6810
:1017DC008A60846010BD10B5044603681868FFF772
:1017EC0039F9204610BD00002DE9F04F87B0039366
:1017FC001C4B80465B688946C3F3080316466BB9DD
:10180C00FFF786FE044600F12403406A0593FFF7B8
:10181C0019F9237B2BB105A8FFF7DDFF07B0BDE855
:10182C00F08F01235FFA89F92373D4E9005305EB98
:10183C00830AAA4512D055F8047B3146381DFFF7B0
:10184C00EBFD8145F5D3039A3B680092D3F808B0C1
:10185C004A46334641463846D847EAE700232373C5
:10186C00D9E700BF00ED00E02DE9F74F9B461A4B7E
:10187C0080465B688946C3F3080316466BB9FFF7CD
:10188C0047FE044600F12403406A0193FFF7DAF89F
:10189C00237B2BB101A8FFF79EFF03B0BDE8F08FAF
:1018AC000123F6B22373D4E9005305EB830A5545A3
:1018BC000ED055F8047B5946381DFFF7ADFD864216
:1018CC00F5D33B684A4641463846DB689847EEE715
:1018DC0000232373DEE700BF00ED00E02DE9F341A8
:1018EC00164B05465B680F46C3F308031BBBFFF79B
:1018FC000FFE044600F12403406A0193FFF7A2F89F
:10190C00D4E90063462406EB8308B04509D101A84D
:10191C00FFF761FFA542B4BF0020012002B0BDE873
:10192C00F08156F8040B39460430FFF775FD8442FC
:10193C00A8BF0446E9E70020F0E700BF00ED00E097
:10194C000B4670B5044605C800EB8202824207D0F4
:10195C0001461D6851F8046BAE4203D00846F5E70A
:10196C00002070BD521A02F0E9FA63680120013BB5
:10197C006360F6E71FB5044600F12403406A019149
:10198C000393FFF75FF8204601A9FFF7D9FF18B1C1
:10199C0063680BB9FFF7E8FD03A8FFF71CFF04B061
:1019AC0010BD182370B50446D0E9045603FB065647
:1019BC00AE4215D0204605F11001FFF7C1FF636858
:1019CC000BB9FFF7D1FDE06929690368DB6898471B
:1019DC00696919B1206A0368DB6898471835E7E72D
:1019EC001826D4E9045306FB0356AE4204D028460D
:1019FC00FFF7EAFA1835F8E70023636170BD73B599
:101A0C000446FFF7B1FD04F12403606A0193FFF76C
:101A1C0019F82046FFF7C5FF01A8FFF7DCFE606A46
:101A2C0008B1FFF707F8D4E90453182606FB035650
:101A3C00AE4204D02846FFF7C7FA1835F8E72069FC
:101A4C00FFF7DEF92068FFF7DBF9204602B070BD26
:101A5C008842F8B506460C46154627D9904226D240
:101A6C000026A2F114056C1AA1F114070444AF422C
:101A7C003DD0A4B12B682360AB88A380B5F90630A8
:101A8C00C4E902662661E380AB68A360AE60E368DC
:101A9C00EA68E260EB6023692A6922612B6105F137
:101AAC000800FFF72FFE143D143CE0E71FD0002781
:101ABC00AC421CD0A6B123683360A388B380B4F9C0
:101ACC000630C6E902773761F380A368B360A7607C
:101ADC00F368E268F260E360336922693261236182
:101AEC0004F10800FFF70EFE14341436E0E7F8BDDD
:101AFC00F8B5D0E901539D4204460E4617460DDB5E
:101B0C000135002D006804DDA900FFF781F918B933
:101B1C00F8BDFFF775F900202060A56025686268A4
:101B2C0005EB86019200A2EB8602081D02F006FA74
:101B3C0045F826706368012001336360E8E737B528
:101B4C00044600F12403406A0D460193FEF77AFF28
:101B5C00D4E9003103EB810083421A460AD01268A3
:101B6C000433AA42F8D101A8FFF735FE0025284618
:101B7C0003B030BD2A462046FFF7BAFF05460028C1
:101B8C00F1D06368012B01D1FFF7E2FC01A8FFF74C
:101B9C0022FEECE78842F8B504460D46164614D9E9
:101BAC00904213D2A2F11006751AA1F110072C4421
:101BBC00B74218D01CB131462046FFF77FFA3046A9
:101BCC00FFF702FA103E103CF2E70CD0B5420AD0F7
:101BDC001CB129462046FFF771FA2846FFF7F4F9A5
:101BEC0010351034F2E7F8BD70B50E1E054611DD48
:101BFC003001FFF7FDF8044658B1D5E9001201EBAE
:101C0C000212FFF7C7FF2868FFF7FAF801202C60D3
:101C1C00AE6070BD0024F6E72DE9F04F914600232D
:101C2C00462297B00391D9F8041004469942C0E9B2
:101C3C000033C0E90233C0E90433CDE90A3302763C
:101C4C000C9323DCD9E90057142303FB0757AF424D
:101C5C003BD029460DA8FFF731FA0DA911A80B9E10
:101C6C00FFF72CFADDE90B1399421BDA0A9B0B9A4E
:101C7C0003EB0616314603EB021206F11000FFF7D8
:101C8C0089FFEEB90B9B01330B9311E00AA8FFF708
:101C9C00ABFF0028D6D10AA8FFF748FD204617B0A5
:101CAC00BDE8F08F01310AA8FFF79EFF0028DDD1B7
:101CBC0011A8FFF789F90DA8FFF786F91435C6E7C7
:101CCC00304611A9FFF7FAF9DCE700264FF0140AA9
:101CDC003746CDE90D660F96DDE90A239E4280F268
:101CEC0097803301D35808930BB90136F4E70AFBFC
:101CFC0006F3099702930DAD09A908A8FFF7C5FAD9
:101D0C0083460028F1D00146099A28460DF11F039D
:101D1C008DF81F70FFF742FB9DF81F800190B8F102
:101D2C00000F66D1BDF82430CDE91388ADF84830EA
:101D3C004FF6FF73CDF844B0ADF84A30CDF854806F
:101D4C00D5E9013293421ADB03F1010BBBF1000F11
:101D5C004ADD0AFB0BF0FFF74BF80490002845D046
:101D6C00D5E900120AFB0212FFF772FE049B2868E9
:101D7C000493FFF745F8049BC5F808B02B60019B52
:101D8C00D5F800B00AFB03F36A680BEB030101F111
:101D9C0014000AFB02B204910593FFF759FE049953
:101DAC00A9B1119A059B4BF80320BDF848308B80E4
:101DBC00BDF94A30C1E902770F61CB80139B8B6070
:101DCC00149B1397CB60159B14970B6115976B683D
:101DDC0001336B6013A8FFF795FCB8F1000F08D026
:101DEC000DA8FFF78FFC56E74346C0E74FF00108FC
:101DFC00F0E7019B2D680AFB0355089B1B782BB958
:101E0C00D9F80030029A13441B7CEB80083573E739
:101E1C002168226062686360A3680B920C9A0C9331
:101E2C00E368A2600D9A0D932369E2600E9A0E93FB
:101E3C00636922610F9A0F93039B0A916261237667
:101E4C00CEE700007FB505460E460446084B11460A
:101E5C0045F8043B01A8FEF705FB314601AA2846CC
:101E6C00FFF7DAFE01A8FEF7BCFA204604B070BDFD
:101E7C0030420A08F0B50F4687B038462549164659
:101E8C001D460C9C02F0B7F800BBE4B1294668462D
:101E9C00FFF792FC2420204901F095F8054670B11B
:101EAC00694603A8FEF7DEFA314603AA2846FFF777
:101EBC00C9FF03A8FEF795FA184B2C622B606846F5
:101ECC00FEF78FFA2C46204607B0F0BD3846144971
:101EDC0002F091F8E0B9002CF5D029466846FFF7DE
:101EEC006BFC24200C4901F06EF805460028E6D066
:101EFC00694603A8FEF7B6FA314603AA2846FFF74F
:101F0C00A1FF03A8FEF76DFA064B2C622B60D6E7F7
:101F1C000024D8E7CB420A08D1440A0868430A08CF
:101F2C00CF420A0850430A08014B024A1A60704714
:101F3C0000010020E0420A082DE9F047089DD0F886
:101F4C00209004460E461746984600F043FB814508
:101F5C004DD02B79190704D520466A695449FFF7EF
:101F6C000EFAB8F1000F0DD05B212046FFF7FBF9FC
:101F7C0041462046FFF7E9F9236802222046DB6838
:101F8C004C4998472B79DA0724D5D5F808802F21AE
:101F9C00404602F05CF808B100F1010841462046C9
:101FAC00FFF7D3F92B799B0708D53A212046FFF789
:101FBC00DAF92046EA684049FFF7E1F92A79236803
:101FCC0012F0040F20464FF00202DB6814BF3B49AD
:101FDC003B4998472B7958071DD529690B461A465A
:101FEC0013F8010B60B1202808D11946F7E73548E2
:101FFC0000F0BBFC0028ACD0BDE8F0872828EED15F
:10200C002368521A2046DB6898472368042220462E
:10201C00DB682D49984700213846FEF73DFE014606
:10202C002046FFF792F9236802222046DB682449F8
:10203C0098471EB131462046FFF787F92B7913F0EC
:10204C00300F2CD023682149DB68022220469847A8
:10205C002B79D9060AD52368072220461C49DB6850
:10206C0098472046AA691B49FFF789F92B799A06EC
:10207C0011D5DB0605D5236802222046DB680F4903
:10208C0098472368204614490A22DB689847204663
:10209C00E969FFF75AF95D212046FFF764F92368D7
:1020AC002046BDE8F0470222DB680C49184700BF08
:1020BC00E4420A08EB420A08EE420A08F1420A0816
:1020CC00F6420A08A4050020F4420A08F9420A085C
:1020DC00FC420A0804430A0807430A0812430A0888
:1020EC002DE9F04385B0D0F8209005460F46904678
:1020FC001E460C9C00F06EFA814505D1494800F053
:10210C0034FC002840F08A804FF000092B6A464AC4
:10211C0001A8019203938DF8089000F09EFD4946AA
:10212C004046FEF7B9FD80464049012201A800F067
:10213C001DFE4146FFF7FCF83FB13D49012201A8C5
:10214C0000F014FE3946FFF7F3F83EB1394901228D
:10215C0001A800F00BFE3146FFF7EAF82379DF0700
:10216C000ED5A6682F21304601F071FF00B1461C38
:10217C003149012201A800F0F9FD3146FFF7D8F8EA
:10218C0023799E0707D52D49022201A800F0EEFD08
:10219C00E16800F06FFD2379580714D526693346A2
:1021AC001F4613F8012B2AB1202A01D11E46F7E74E
:1021BC00282AF5D10222224901A800F0D7FD314688
:1021CC00BA1B00F0E2FD2379190707D51D4901223E
:1021DC0001A800F0CBFD616900F05EFD2379DA0601
:1021EC0008D5042218490DEB020000F0BFFDA169CF
:1021FC0000F040FD23799B0607D51449062201A85F
:10220C0000F0B4FDE169FFF793F801A800F00FFDB1
:10221C00286A022203680E49DB68984705B0BDE8BE
:10222C00F08300BFA405002038430A08BE420A0808
:10223C0015430A0817430A0819430A081B430A08DE
:10224C001E430A0821430A0823430A0828430A08A4
:10225C0012430A08024B1A68024B1A60704700BFFF
:10226C000C0000202C0100200021FEF72DBD10B524
:10227C000446FDF78DFF204610BD000000230348E7
:10228C00034A0449836000F097BE00BF3001002070
:10229C00780000207B220A08014B1860704700BFB1
:1022AC001000002008B5134B43B100F093F90368FC
:1022BC001B699847002801DDAFF300800E4B43B13A
:1022CC0000F04AFA03681B699847002801DDAFF358
:1022DC0000800A4B0BB1AFF30080094B43B100F007
:1022EC00B7F903681B699847002801DDAFF300803C
:1022FC0008BD00BF0000000000000000000000004E
:10230C000000000008B5FFF7CDFFFEF783FB014B83
:10231C00186008BDBC0500200248034A0349121A84
:10232C0001F0FEBD0040024004400240F8460A089D
:10233C00002307B51A466FF077010093FEF7DEFC19
:10234C0003B05DF804FB000007B543880A2B08D0E6
:10235C00502B0BD1094B1B684BB103B05DF804EB50
:10236C001847FFF7E5FF03B05DF804FB00231A469E
:10237C006FF077010093FEF7C1FCF4E744010020F5
:10238C0038B5124C00211248FEF752FD114D23684E
:10239C00AB420CBF012200220F4B1A7002D0FFF788
:1023AC00BBFF2560FEF726FB044601F0E9FD0B4B55
:1023BC0013B12046AFF3008000210848FEF710FD52
:1023CC00BDE8384000210648FEF78EBC00400240B4
:1023DC00A5220A081E1C279A4001002000000000BC
:1023EC0055230A0810B588B004466846FEF736FE39
:1023FC00694604A8FEF77CFE04A8A047044604A87E
:10240C00FEF7E2FD6846FEF7DFFD204608B010BD82
:10241C001FB500231024CDE90201019269461A462A
:10242C001846ADF80230ADF80040FEF7C1FC04B020
:10243C0010BD704710B50446182100F0C2FD2046AF
:10244C0010BDF8B50E46002400F10807051D17F85D
:10245C00011D0A223046FEF7B6FEAF42044401D1FC
:10246C002046F8BD002CF2D02E213046FEF79CFE03
:10247C000444ECE710B50446044B1122002140F84B
:10248C00043B01F075FD204610BD00BFCC430A088B
:10249C000346074A10B543F8042B01F1100251F81A
:1024AC00044B914243F8044BF9D10A781A7010BDD1
:1024BC00CC430A08024AC0E9002104220275704785
:1024CC00CC430A0810B59DF8084044EA03240423C1
:1024DC0044EA024444EA01644460037510BD000000
:1024EC0037B5044D05609DF818500095FFF7EAFFCD
:1024FC0003B030BDCC430A0841747047704708B52F
:10250C000021007CFEF798FB40EAE07008BD08B59E
:10251C000121007CFEF790FB40EAE07008BD08B595
:10252C00007CFEF781FB20EAE07008BD08B5007C5A
:10253C00FEF772FB20EAE07008BD38B50446007C5B
:10254C000D46FEF771FB002801DC607C28B12946A2
:10255C00207CFEF779FB20EAE07038BD007CFEF7AA
:10256C007BBB10B50446142100F02BFD204610BD9A
:10257C0010B54FF47A73044608460021C4E90113E0
:10258C00044B20742360012311466374FEF72CFB6B
:10259C00204610BDE0430A080022007CFEF72CBB4D
:1025AC00007CFEF731BB000010B50446142200215C
:1025BC0001F0DEFC054B20466360054BE36040F206
:1025CC00011323818123238210BD00BF78010020D9
:1025DC007902002030B50F4D87B001A8FFF7E4FF5A
:1025EC002978BFF35B8F11F0010410D12846FDF759
:1025FC005DFD60B1214601AA0748FFF7B9FF2846E7
:10260C00FDF759FD054A0649034800F0D5FC024880
:10261C0007B030BD48010020500100207800002098
:10262C0009250A0810B504461422002101F0A0FC6B
:10263C00054B20466360054BE36040F20113238198
:10264C008123238210BD00BFFA020020FB0300206F
:10265C0010B50F4C86B001A8FFF7E4FF2378BFF349
:10266C005B8FDB0710D42046FDF720FD60B1012104
:10267C0001AA0848FFF77CFF2046FDF71CFD064A1F
:10268C000649044800F098FC024806B010BD00BF93
:10269C004C010020640100207800002009250A0864
:1026AC0070474174704708B5007CFEF71BFA20EAAE
:1026BC00E07008BD08B5007CFEF7ECF920EAE0708C
:1026CC0008BD08B5007CFEF7F5F940EAE07008BDDE
:1026DC0008B5007CFEF7E6F940EAE07008BD007C26
:1026EC00FEF7F0B970B5467C04460D462EB129466E
:1026FC00207CBDE87040FEF7C5B9007CFEF7F2F90E
:10270C000028F4DC304670BD10B50446142100F0EE
:10271C0058FC204610BD00004FF0000C10B50446CC
:10272C00084611464FF47A72C4E901C2044A207477
:10273C002260012262741A46FEF794F9204610BDFD
:10274C0010440A080023007CFEF7D4B90022FFF7DE
:10275C00F9BF007CFEF78EB938B50D4D2978BFF363
:10276C005B8F11F0010411D12846FDF79FFC68B175
:10277C002146084A084B0948FFF7CEFF2846FDF7CB
:10278C009AFC074A0749054800F016FC034838BD77
:10279C007C04002080040020040500208805002013
:1027AC0078000020AD260A087047F8B50646154695
:1027BC000C468F18BC4206D0336830469B6814F820
:1027CC00011B9847F6E72846F8BD0022007CFEF76F
:1027DC00C1B90021007CFEF7C5B90021007CFEF7D1
:1027EC00C9B90021007CFEF7CDB90021007CFEF7B1
:1027FC00D1B910B50446142100F0E3FB204610BDFE
:10280C0010B54FF47A73044608460021C4E901134D
:10281C00034B114623602074FEF7CCF9204610BD03
:10282C0040440A080022007CFEF76CB90022007CB0
:10283C00FEF770B90023007C1A461946FEF772B9F0
:10284C000022007CFEF776B90022007CFEF77AB9F4
:10285C000121FFF7F9BF002240681146FEF770BA5C
:10286C00F0B5154689B011220E460446002103A886
:10287C0001F07EFB284601F0D0FB002781B2736883
:10288C002846009703AAFEF7EFF930B139462046E7
:10289C00FFF710FE204609B0F0BD204603A9FFF754
:1028AC00F7FDF7E7002240681146FEF769BA0022EF
:1028BC0040681146FEF774BA00224068FEF768BA09
:1028CC000022406881F00101FEF752BA00234068F3
:1028DC001A461946FEF744BA002240681146FEF724
:1028EC001FBA002202214068FEF722BA002340687A
:1028FC001A46FEF70DBA00000422024B5A60024A37
:10290C001A6070479C05002068440A080023406840
:10291C001A46FEF7FDB9002202214068FEF708BAFC
:10292C00002240681146FEF7FBB9002240681146B0
:10293C00FEF706BA002340681A461946FEF708BA95
:10294C00002340681A461946FEF70ABA002240686E
:10295C0081F00101FEF70CBA00224068FEF718BAAC
:10296C00002240681146FEF71BBA0022406811464F
:10297C00FEF706BA70B515468EB0044608A8FFF7E8
:10298C0079FD1122002103A801F0F2FA0026284655
:10299C0001F043FB0A4B009681B25B68284603AA00
:1029AC00FEF762F930B131462046FFF783FD204631
:1029BC000EB070BD204603A9FFF76AFDF7E700BF14
:1029CC009C050020024B034A1A6000225A60704793
:1029DC00A40500209C440A08012200F1100313F8FE
:1029EC00101C1846012908D153F8041C02EB4102B3
:1029FC00013A03F11003F2D17047022904BF53F8D6
:102A0C00041C5218F4E70EB42DE9F04187B000AF66
:102A1C0007F1340555F8048B04462B464246102129
:102A2C0007F108007D60FEF7FBF90F281BD900F1B8
:102A3C00080323F007036E46ADEB030D4246411C21
:102A4C002B4668467D60FEF7EBF9021E04DD236819
:102A5C00694620469B689847B5461C37BD46BDE87D
:102A6C00F04103B070470028F7D0236802469B68FA
:102A7C00204607F108019847EFE710B504460368B4
:102A8C009B689847A368013BA3602BB92368204639
:102A9C00BDE81040DB68184710BD07B503688DF81A
:102AAC00071001229B680DF10701984703B05DF8F0
:102ABC0004FB38B50B68044603604D6843689D42BF
:102ACC000CD015B16B6801336B60606828B143683A
:102ADC00013B43600BB9FFF7D0FF6560204638BD62
:102AEC000B461146002210B50446C0E90022836053
:102AFC000BB9204610BDFFF7DCFFFAE703468068F0
:102B0C0020B30278032A1AD8DFE802F00417021B5C
:102B1C00052070471B685A684368D05C2D2812D07A
:102B2C00A0F13003092B0ED974280ED066280CD0D6
:102B3C00A0F16E03584258417047062070470020A0
:102B4C00704704207047032070470220704710B56F
:102B5C000446FFF7D3FF02280ED0C31EDBB2012BB5
:102B6C0014D82268A36850685B680A22BDE810403C
:102B7C000021184401F0FABA2268A36852685B6815
:102B8C00D05CA0F174035842584110BD0020FCE702
:102B9C000B461146002210B50446C0E900220D4830
:102BAC00C4E90202A3B11A78032A06D082B90A68D2
:102BBC0050685A68825C6E2A07D00A685868526856
:102BCC009B6802441B1AA260E3602046FFF771FF6A
:102BDC00204610BD14430A0838B500250B460446A0
:102BEC001146C0E90055C0E90255C0E904554BB186
:102BFC001A78012A06D103F11002DB688260436166
:102C0C00FFF757FF204638BD10B54369044663B142
:102C1C008068013BE0601030A0602061636113B1FB
:102C2C00FFF7DAFEA060012000E0184610BD10B5D9
:102C3C007D210446FFF731FF01232046237110BD8F
:102C4C0008B50379012B02D0022B04D008BD2C212E
:102C5C00FFF723FFFAE73A21FAE710B50446FFF72E
:102C6C00EFFF20467B21FFF718FF0023204623713E
:102C7C0010BD000038B504460D46FFF7E1FF236890
:102C8C0020462A46DB6803499847012320462371D6
:102C9C0038BD00BFEE420A0838B504460D46FFF7B2
:102CAC00CFFF236820462A46DB6803499847012357
:102CBC002046237138BD00BFC8440A082DE9F041F5
:102CCC000D46174622210446FFF7E7FE2946DFF89A
:102CDC0098802F44BD422A4638D015F8016B222E1D
:102CEC0003D05C2E01D01F2EF4D82368521A204634
:102CFC009B6898475C212046FFF7CFFE0D2E0AD823
:102D0C00072E1CD9A6F10803052B18D8DFE803F011
:102D1C000D0F11171315222E01D05C2E0FD1314639
:102D2C002046FFF7BAFE2946D4E76221F8E7742162
:102D3C00F6E76E21F4E76621F2E77221F0E72368EB
:102D4C00324641462046DB689847ECE78D4204D07A
:102D5C00236820469B686A1A984722212046FFF771
:102D6C009CFEBDE8F08100BFCB440A0870B5044658
:102D7C000D461646FFF764FF204632462946FFF7FC
:102D8C009DFF02232046237170BD70B504460D468D
:102D9C001646FFF755FF204632462946FFF78EFFB1
:102DAC0001232046237170BD10B50446806808B11C
:102DBC00FDF740FE204610BD172870B5044601D91A
:102DCC00002070BDA0F10D03022B0BD9012826D8D1
:102DDC0000F0CAF80021007CFDF7E4FE80F0010051
:102DEC00C0B2EEE7134E3178BFF35B8F11F00105E3
:102DFC000FD13046FDF75AF958B129460E48FEF767
:102E0C001FF83046FDF757F90C4A0D490A4800F0F7
:102E1C00D3F8094B1878FDF7DFFE0028D0D1123C0F
:102E2C00012C05D8FFF798FC007CFDF753FED5E785
:102E3C000120C6E7AC050020B0050020780000207A
:102E4C00B52D0A08172838B504460D460AD8FF29AF
:102E5C0008D0FFF7B1FF28B129462046BDE838401D
:102E6C00FDF7A8BD38BD38B504460D46FDF7AAFDE3
:102E7C00FF2810D0062804D84D2323FA00F0C307EE
:102E8C0009D42046FFF798FF28B129462046BDE813
:102E9C003840FDF79FBD38BD10B50446FDF792FDD7
:102EAC00031FDBB2012B08D92046FFF785FF20B1A9
:102EBC002046BDE81040FDF795BD002010BD2DE962
:102ECC00F041002590462C460E460746304601211F
:102EDC00FFF7C9FF64B23846B8F1000F0ED1FFF707
:102EEC00DBFFA8400443002130460135FFF7BBFF50
:102EFC00082DE4B2EAD12046BDE8F081FFF7CCFF03
:102F0C00C5F107039840EDE7002313B5074C1A46AB
:102F1C00194620460093FFF7E3FA2046044A054978
:102F2C0002B0BDE8104000F047B800BFC00500205B
:102F3C00780000203F240A08002370B52025438028
:102F4C001423084E044603803146856005612846EB
:102F5C0000F03BF831466060284600F036F8E0603F
:102F6C00204670BDD1440A0830B50F4D87B0297882
:102F7C00BFF35B8F11F0010413D12846FDF796F8CF
:102F8C0078B101A8FFF7D8FF214601AA0748FFF73F
:102F9C0037FC2846FDF78FF8054A0649034800F030
:102FAC000BF8024807B030BDD8050020DC05002026
:102FBC0078000020B5270A080B460146184600F099
:102FCC00A1BFFDF766B8FDF760B8FDF760B800006B
:102FDC00014900F0FBB800BFEC440A087FB500249F
:102FEC001023CDE90234036815469E6912686B46BE
:102FFC0000948DF80440B0479DF8043003F00603AC
:10300C00062B09BF01202046009B2B6004B070BD2D
:10301C000098904214BF01200620704710B504465A
:10302C00024B036000F0CFF8204610BD2C450A0877
:10303C0010B50446FFF7F2FF20460821FFF7C1FF49
:10304C00204610BD2DE9F041DDF818801F46DDE962
:10305C00083498450646154607D1079900F0B6F88E
:10306C0018B165710020BDE8F0813946304600F09A
:10307C00ADF80028F6D00123C4F800802571A371A7
:10308C00F0E738B515461C4600F0A0F820B108232F
:10309C00E36006232560237138BD2DE9F041054618
:1030AC000C4616461F4600F091F848B9032F07D876
:1030BC002368324629462046BDE8F0415B69184733
:1030CC00BDE8F08110B50446024B0360FFF7A6FF84
:1030DC00204610BD8C450A0810B50446FFF7F2FFD8
:1030EC0020460C21FFF76DFF204610BD2DE9F04165
:1030FC00DDF81880064690450F4615461C460BD049
:10310C00B0682A460368CDF818801E6A39462346F3
:10311C00B446BDE8F0416047194600F057F8002866
:10312C00EED00620BDE8F0812DE9F14F0D46DDE92A
:10313C000A4BDDE90CA6194681461746984600F065
:10314C0045F890B1002D3460377109DB2C44A24551
:10315C000CBF06240124B471002001B0BDE8F08F2F
:10316C000235F9D10123B371F6E7544506D159461E
:10317C00484600F02BF808B17771EDE7D9F8080054
:10318C003A460368CDE90CA6CDE90A4BDC69294621
:10319C004346A44601B0BDE8F04F60472DE9F0412D
:1031AC0007460C4615461E46FFF76BFF48B9B86834
:1031BC002A46036821469F693346BC46BDE8F04168
:1031CC006047BDE8F081704700207047814208B528
:1031DC000ED0406803782A2B0CD049680B782A2B28
:1031EC0008BF013100F007FFB0FA80F0400908BDBC
:1031FC000120FCE70020FAE781F0004102E000BF6B
:10320C0083F0004330B54FEA41044FEA430594EA9A
:10321C00050F08BF90EA020F1FBF54EA000C55EAD5
:10322C00020C7FEA645C7FEA655C00F0E2804FEAA6
:10323C005454D4EB5555B8BF6D420CDD2C4480EA88
:10324C00020281EA030382EA000083EA010180EAB8
:10325C00020281EA0303362D88BF30BD11F0004F06
:10326C004FEA01314FF4801C4CEA113102D040423C
:10327C0061EB410113F0004F4FEA03334CEA133377
:10328C0002D0524263EB430394EA050F00F0A7808F
:10329C00A4F10104D5F1200E0DDB02FA0EFC22FA8A
:1032AC0005F2801841F1000103FA0EF2801843FA7E
:1032BC0005F359410EE0A5F120050EF1200E012A6F
:1032CC0003FA0EFC28BF4CF0020C43FA05F3C018AD
:1032DC0051EBE37101F0004507D54FF0000EDCF126
:1032EC00000C7EEB00006EEB0101B1F5801F1BD3CF
:1032FC00B1F5001F0CD349085FEA30004FEA3C0CD3
:10330C0004F101044FEA445212F5800F80F09A80C8
:10331C00BCF1004F08BF5FEA500C50F1000041EBCC
:10332C00045141EA050130BD5FEA4C0C404141EBD0
:10333C000101013C28BFB1F5801FE9D291F0000FCB
:10334C0004BF01460020B1FA81F308BF2033A3F17A
:10335C000B03B3F120020CDA0C3208DD02F1140C71
:10336C00C2F10C0201FA0CF021FA02F10CE002F1AC
:10337C001402D8BFC2F1200C01FA02F120FA0CFCA5
:10338C00DCBF41EA0C019040E41AA2BF01EB0451EE
:10339C00294330BD6FEA04041F3C1CDA0C340EDCEC
:1033AC0004F11404C4F1200220FA04F001FA02F32F
:1033BC0040EA030021FA04F345EA030130BDC4F1ED
:1033CC000C04C4F1200220FA02F001FA04F340EAE2
:1033DC000300294630BD21FA04F0294630BD94F093
:1033EC00000F83F4801306BF81F480110134013D7A
:1033FC004EE77FEA645C18BF7FEA655C29D094EAEB
:10340C00050F08BF90EA020F05D054EA000C04BF68
:10341C001946104630BD91EA030F1EBF0021002053
:10342C0030BD5FEA545C05D14000494128BF41F0F2
:10343C00004130BD14F580043CBF01F5801130BD56
:10344C0001F0004545F0FE4141F470014FF00000E1
:10345C0030BD7FEA645C1ABF194610467FEA655C92
:10346C001CBF0B46024650EA013406BF52EA033534
:10347C0091EA030F41F4002130BD00BF90F0000F22
:10348C0004BF0021704730B54FF4806404F132045E
:10349C004FF000054FF0000150E700BF90F0000F17
:1034AC0004BF0021704730B54FF4806404F132043E
:1034BC0010F0004548BF40424FF000013EE700BF0E
:1034CC0042004FEAE2014FEA31014FEA02701FBF9E
:1034DC0012F07F4393F07F4F81F06051704732F0D0
:1034EC007F4208BF704793F07F4F04BF41F4002127
:1034FC00704730B54FF4607401F0004521F0004185
:10350C001CE700BF50EA010208BF704730B54FF00E
:10351C0000050AE050EA010208BF704730B511F00F
:10352C00004502D5404261EB41014FF4806404F147
:10353C0032045FEA915C3FF4D8AE4FF003025FEACD
:10354C00DC0C18BF03325FEADC0C18BF033202EB51
:10355C00DC02C2F1200300FA03FC20FA02F001FAAB
:10356C0003FE40EA0E0021FA02F11444BDE600BF4E
:10357C0070B54FF0FF0C4CF4E06C1CEA11541DBFFD
:10358C001CEA135594EA0C0F95EA0C0F00F0DEF8C8
:10359C002C4481EA030621EA4C5123EA4C5350EAAD
:1035AC00013518BF52EA033541F4801143F48013FE
:1035BC0038D0A0FB02CE4FF00005E1FB02E506F08F
:1035CC000042E0FB03E54FF00006E1FB03569CF0E4
:1035DC00000F18BF4EF0010EA4F1FF04B6F5007FEA
:1035EC0064F5407404D25FEA4E0E6D4146EB06065C
:1035FC0042EAC62141EA55514FEAC52040EA5E50E5
:10360C004FEACE2EB4F1FD0C88BFBCF5E06F1ED88E
:10361C00BEF1004F08BF5FEA500E50F1000041EBC5
:10362C00045170BD06F0004646EA010140EA020072
:10363C0081EA0301B4EB5C04C2BFD4EB0C0541EA94
:10364C00045170BD41F480114FF0000E013C00F3A9
:10365C00AB8014F1360FDEBF002001F0004170BDCD
:10366C00C4F10004203C35DA0C341BDC04F11404E6
:10367C00C4F1200500FA05F320FA04F001FA05F272
:10368C0040EA020001F0004221F0004110EBD3703F
:10369C0021FA04F642EB06015EEA430E08BF20EA6B
:1036AC00D37070BDC4F10C04C4F1200500FA04F30E
:1036BC0020FA05F001FA04F240EA020001F00041A0
:1036CC0010EBD37041F100015EEA430E08BF20EA13
:1036DC00D37070BDC4F1200500FA05F24EEA020E5B
:1036EC0020FA04F301FA05F243EA020321FA04F08A
:1036FC0001F0004121FA04F220EA020000EBD37041
:10370C005EEA430E08BF20EAD37070BD94F0000F40
:10371C000FD101F00046400041EB010111F4801F74
:10372C0008BF013CF7D041EA060195F0000F18BF25
:10373C00704703F00046520043EB030313F4801F61
:10374C0008BF013DF7D043EA0603704794EA0C0F1B
:10375C000CEA135518BF95EA0C0F0CD050EA410631
:10376C0018BF52EA4306D1D181EA030101F00041AE
:10377C004FF0000070BD50EA410606BF10461946D6
:10378C0052EA430619D094EA0C0F02D150EA0136E2
:10379C0013D195EA0C0F05D152EA03361CBF104623
:1037AC0019460AD181EA030101F0004141F0FE41C2
:1037BC0041F470014FF0000070BD41F0FE4141F446
:1037CC00780170BD70B54FF0FF0C4CF4E06C1CEA46
:1037DC0011541DBF1CEA135594EA0C0F95EA0C0FFB
:1037EC0000F0A7F8A4EB050481EA030E52EA0335B6
:1037FC004FEA013100F088804FEA03334FF08055D7
:10380C0045EA131343EA12634FEA022245EA111503
:10381C0045EA10654FEA00260EF000419D4208BFB4
:10382C00964244F1FD0404F5407402D25B084FEA61
:10383C003202B61A65EB03055B084FEA32024FF40D
:10384C0080104FF4002CB6EB020E75EB030E22BF6A
:10385C00B61A754640EA0C005B084FEA3202B6EB2A
:10386C00020E75EB030E22BFB61A754640EA5C00D9
:10387C005B084FEA3202B6EB020E75EB030E22BF69
:10388C00B61A754640EA9C005B084FEA3202B6EB6A
:10389C00020E75EB030E22BFB61A754640EADC0029
:1038AC0055EA060E18D04FEA051545EA16754FEA8B
:1038BC0006164FEAC30343EA52734FEAC2025FEAA9
:1038CC001C1CC0D111F4801F0BD141EA00014FF038
:1038DC0000004FF0004CB6E711F4801F04BF014309
:1038EC000020B4F1FD0C88BFBCF5E06F3FF6AFAE25
:1038FC00B5EB030C04BFB6EB020C5FEA500C50F1B5
:10390C00000041EB045170BD0EF0004E4EEA113137
:10391C0014EB5C04C2BFD4EB0C0541EA045170BD3E
:10392C0041F480114FF0000E013C90E645EA060E82
:10393C008DE60CEA135594EA0C0F08BF95EA0C0FB0
:10394C003FF43BAF94EA0C0F0AD150EA01347FF4F8
:10395C0034AF95EA0C0F7FF425AF104619462CE7CF
:10396C0095EA0C0F06D152EA03353FF4FDAE104632
:10397C00194622E750EA410618BF52EA43067FF483
:10398C00C5AE50EA41047FF40DAF52EA43057FF413
:10399C00EBAE12E74FF0FF3C06E000BF4FF0010C1E
:1039AC0002E000BF4FF0010C4DF804CD4FEA410C82
:1039BC007FEA6C5C4FEA430C18BF7FEA6C5C1BD04F
:1039CC0001B050EA410C0CBF52EA430C91EA030FD0
:1039DC0002BF90EA020F0020704710F1000F91EA2D
:1039EC00030F58BF994208BF90422CBFD8176FEAFB
:1039FC00E37040F0010070474FEA410C7FEA6C5CC9
:103A0C0002D150EA013C07D14FEA430C7FEA6C5CCF
:103A1C00D6D152EA033CD3D05DF8040B704700BFFB
:103A2C008446104662468C461946634600E000BF49
:103A3C0001B5FFF7B7FF002848BF10F1000F01BD1B
:103A4C004DF808EDFFF7F4FF0CBF012000205DF8E6
:103A5C0008FB00BF4DF808EDFFF7EAFF34BF01206B
:103A6C0000205DF808FB00BF4DF808EDFFF7E0FF04
:103A7C0094BF012000205DF808FB00BF4DF808ED55
:103A8C00FFF7CEFF94BF012000205DF808FB00BFBC
:103A9C004DF808EDFFF7C4FF34BF012000205DF89E
:103AAC0008FB00BF4A0011D212F5001211D20DD53D
:103ABC006FF47873B3EB62520ED44FEAC12343F028
:103ACC00004343EA505323FA02F070474FF00000D2
:103ADC00704750EA013002D14FF0FF3070474FF081
:103AEC00000070474FF0FF3C06E000BF4FF0010CA8
:103AFC0002E000BF4FF0010C4DF804CD4FEA40023C
:103B0C004FEA41037FEA226C18BF7FEA236C11D085
:103B1C0001B052EA530C18BF90EA010F58BFB2EB38
:103B2C00030088BFC81738BF6FEAE17018BF40F0B8
:103B3C00010070477FEA226C02D15FEA402C05D16C
:103B4C007FEA236CE4D15FEA412CE1D05DF8040BF1
:103B5C00704700BF844608466146FFE70FB5FFF784
:103B6C00C9FF002848BF10F1000F0FBD4DF808ED3C
:103B7C00FFF7F4FF0CBF012000205DF808FB00BF2D
:103B8C004DF808EDFFF7EAFF34BF012000205DF887
:103B9C0008FB00BF4DF808EDFFF7E0FF94BF0120D4
:103BAC0000205DF808FB00BF4DF808EDFFF7D2FFD1
:103BBC0094BF012000205DF808FB00BF4DF808ED14
:103BCC00FFF7C8FF34BF012000205DF808FB00BFE1
:103BDC0053B94AB9002908BF00281CBF4FF0FF3168
:103BEC004FF0FF3000F08CB9ADF1080C6DE904CE4C
:103BFC0000F024F8DDF804E0DDE9022304B070479E
:103C0C00D0B500220B4B06460F46FFF7B1FCFFF771
:103C1C0049FF0446FFF732FC0022074BFFF7A8FCD4
:103C2C0002460B4630463946FFF7EAFAFFF73AFFF1
:103C3C002146D0BD0000F03D0000F0412DE9F047D9
:103C4C00089E0D4604468E46002B40F083808A4227
:103C5C00174647D9B2FA82F34BB1C3F1200105FAEA
:103C6C0003FE20FA01F19F4041EA0E0E9C404FEA00
:103C7C001748BEFBF8FC1FFA87F908FB1CE20CFB8B
:103C8C0009F0210C41EA024290420AD9BA180CF10F
:103C9C00FF3180F01881904240F21581ACF1020C9A
:103CAC003A44121AB2FBF8F008FB102200FB09F19F
:103CBC00A4B244EA0244A14209D93C1900F1FF32F2
:103CCC0080F00381A14240F2008102383C44641A26
:103CDC00002140EA0C401EB10022DC40C6E9004243
:103CEC00BDE8F08702B9FFDEB2FA82F3002B4FD1A8
:103CFC008D1A01214FEA124E1FFA82F8B5FBFEFC19
:103D0C000EFB1C5508FB0CF0220C42EA0545A842A0
:103D1C0007D97D190CF1FF3202D2A84200F2E980DA
:103D2C0094462D1AB5FBFEF00EFB105508FB00F85F
:103D3C00A4B244EA0544A04507D93C1900F1FF326E
:103D4C0002D2A04500F2D9801046A4EB080440EA48
:103D5C000C40C0E78B4208D9002E00F0B180002146
:103D6C00C6E900050846BDE8F087B3FA83F10029DF
:103D7C004BD1AB4202D3824200F2B980841A65EB7C
:103D8C00030301209E46002EAAD0C6E9004EA7E7E9
:103D9C009F40C3F12002D1404FEA174EB1FBFEF019
:103DAC001FFA87F80EFB101124FA02F29D4000FB5B
:103DBC0008FC2A43150C45EA0145AC4504FA03F40A
:103DCC0009D97D1900F1FF3180F08F80AC4540F2AC
:103DDC008C8002383D44A5EB0C05B5FBFEF10EFBC7
:103DEC00115C01FB08F995B245EA0C45A94507D9C8
:103DFC007D1901F1FF3274D2A94572D902393D44C3
:103E0C00A5EB090541EA004178E7C1F120078B4099
:103E1C0022FA07FC4CEA030C25FA07F44FEA1C4E75
:103E2C00B4FBFEF91FFA8CF80EFB194420FA07F3C9
:103E3C0009FB08FA8D401D432B0C43EA0444A245B0
:103E4C0002FA01F200FA01F309D91CEB040409F19E
:103E5C00FF3048D2A24546D9A9F102096444A4EB2B
:103E6C000A04B4FBFEF00EFB104400FB08FAADB2E2
:103E7C0045EA0444A24508D91CEB040400F1FF35C3
:103E8C002DD2A2452BD90238644440EA0940A0FB4C
:103E9C000289A4EB0A044C45C6464D4619D316D0EC
:103EAC005EB1B3EB0E0264EB050404FA07F722FAD9
:103EBC0001F31F43CC40C6E900740021BDE8F08734
:103ECC00314630460CE78C46EBE61046FFE64345A0
:103EDC00E6D2B8EB020E69EB0C050138E0E7284698
:103EEC00D3E711468CE78146B9E7084673E70846E5
:103EFC0049E7ACF1020C3D4413E702383C4424E79B
:103F0C00704700BF10B504460448134620B10A465A
:103F1C0002202146AFF3008010BD00BF000000005E
:103F2C000A44914200F1FF3300D1704710B511F8EB
:103F3C00014B914203F8014FF9D110BD884210B5E5
:103F4C0001EB020402D98442234607D8431EA14246
:103F5C0008D011F8012B03F8012FF8E701460244B1
:103F6C008A4200D110BD13F8014D02F8014DF7E75C
:103F7C0003460244934200D1704703F8011BF9E752
:103F8C0038B50D4B04461D68AB6B7BB91820FCF79C
:103F9C002FFF0A4A0A4BA863C0E90023094B0122F0
:103FAC0083600B2383810023C0E904230022AB6BC5
:103FBC001C615A6138BD00BF100000200E33CDAB20
:103FCC0034126DE6ECDE05000346C9B2184613F850
:103FDC00012B12B18A42F9D17047002918BF002079
:103FEC00704710B50446FFF7EFFF18B9204600F0F4
:103FFC0014F8204410BD10F8012B11F8013B012AD4
:10400C0028BF9A42F7D0D01A7047034611F8012BFB
:10401C0003F8012B002AF9D17047034613F8012B42
:10402C00002AFBD1181A0138704710B56AB1013952
:10403C00841810F8013B11F8012F934203D1A042D0
:10404C0001D0002BF5D1981A10BD1046FCE738B5FD
:10405C0003460C4669B9BDE83840FFF7B5BF0546C5
:10406C00431C21461846FFF7AFFF0028F7D128461E
:10407C0038BD0025F5E700002DE9F0478C46864653
:10408C00394E60461CF8014BA55D15F00805F8D1BA
:10409C002D2C33D14FF001089CF8004000F1020C9C
:1040AC00002B5CD0102B0CD1302C0AD19CF80000CA
:1040BC0000F0DF0058284DD110239CF801400CF182
:1040CC00020C002608F10047013FB7FBF3F930461C
:1040DC0003FB197AA4F13005092D18D82C46A342FC
:1040EC0024DD751C07D081451DD301D1A2451ADBF7
:1040FC00012600FB03401CF8014BEBE72B2C08BFFF
:10410C009CF80040A84608BF00F1020CC8E7A4F1D7
:10411C004105192D01D8373CE1E7A4F16105192DB2
:10412C0004D8573CDBE74FF0FF36E4E7731C06D1AD
:10413C0022233846CEF8003042B9BDE8F087B8F1FA
:10414C00000F00D04042002AF7D00EB10CF1FF3125
:10415C001160F2E73024002BB3D10823B1E7302CE7
:10416C00A4D00A23ADE700BFC6450A0813460A4689
:10417C00014602480068FFF77FBF00BF1000002017
:10418C001D000A085D000A0885000A0889000A0853
:10419C0000000000636F6E65637461646F206120C2
:1041AC006E7576656D20656D20256C75206D7300C0
:1041BC0066616C686120646520636F6E6578616F01
:1041CC002C20656E7472616E646F206E6F206D6F43
:1041DC00646F20534C454550005065736F006B67FE
:1041EC0000546172612064612062616C616E636174
:1041FC00002070656C61206E7576656D21005461D0
:10420C0072612064612062616C616E63612E2E2E7E
:10421C0000746172655363616C65000000000000FE
:10422C00000000000000000000000000A5000A08CB
:10423C00C9000A0800000000000000003D010A0847
:10424C0071010A08451F0A08CB000A08000000008B
:10425C0000000000D3000A08D5000A08AF010A08C4
:10426C0009010A08E5000A0800000000000000002F
:10427C0000000000000000001D060A081F060A08C6
:10428C00000000000000000089070A088B070A08DC
:10429C0057080A0861110A080000000040000000DD
:1042AC0014000000540000006261756400536572D4
:1042BC0069616C0055534253657269616C31004AF7
:1042CC00534F4E53747265616D4C6F6748616E64E9
:1042DC006C65720061707000253031307520005DA6
:1042EC0020002564002C200028293A2000205B00A7
:1042FC00636F6465203D2000256900646574616905
:10430C006C73203D20000D0A006D00630066006C8C
:10431C006E00666E007400636F64650064657461A2
:10432C00696C0000000000000000000095120A08F3
:10433C00BB120A087B120A08132A0A0800000000A4
:10434C000000000071170A0889170A08451F0A089F
:10435C00CB000A0800000000000000009D170A08AE
:10436C00B1170A08ED200A0883120A0800000000A1
:10437C000000000093120A08C9120A08811E0A08DC
:10438C0085120A08000000000000000091120A08C3
:10439C00D7120A0899160A08F3120A0825592D256E
:1043AC006D2D25645425483A254D3A2553257A0020
:1043BC0061736374696D650000000000000000000B
:1043CC004F240A083F240A0841240A080000000070
:1043DC000000000009250A086F250A0847250A086D
:1043EC0061110A0839250A080B250A081B250A0839
:1043FC0069250A082B250A0805250A080000000073
:10440C0000000000AD260A0815270A08F1260A0844
:10441C0061110A08C1260A08DD260A08CF260A08F7
:10442C00EB260A08AF260A08B3260A08000000008B
:10443C0000000000B5270A08FF270A08D7270A083A
:10444C00B7270A08DF270A08E7270A08EF270A0810
:10445C00F7270A080000000000000000F9280A08ED
:10446C00EF280A08E5280A0863280A086F120A08C8
:10447C00D9280A08CD280A08C5280A08BB280A0822
:10448C00B1280A086D280A0800000000000000008E
:10449C0019290A0823290A082D290A0837290A0884
:1044AC0041290A084D290A0859290A0865290A08C8
:1044BC006D290A0877290A0881290A0825750075CB
:1044CC00253034780000537431395F53705F6D615F
:1044DC006B655F7368617265645F7461670000008F
:1044EC002C450A08D2440A088C450A0800450A08DB
:1044FC00B0450A084E31305F5F6378786162697647
:10450C003131375F5F636C6173735F747970655FB2
:10451C00696E666F4500000000000000F4440A0854
:10452C0029300A083D300A08D5310A08D5310A0865
:10453C00A7300A08E92F0A088F300A0851300A08F8
:10454C001D300A088C450A085C450A08F4440A0820
:10455C004E31305F5F637878616269763132305FFB
:10456C005F73695F636C6173735F747970655F69A6
:10457C006E666F45000000000000000050450A0800
:10458C00D1300A08E5300A08D5310A08D5310A08B5
:10459C00A7300A08E92F0A08A9310A0835310A0898
:1045AC00F9300A082C450A08B8450A0853743974BE
:1045BC007970655F696E666F0000202020202020D6
:1045CC0020202028282828282020202020202020B7
:1045DC0020202020202020202020881010101010B7
:1045EC001010101010101010101004040404040407
:1045FC0004040404101010101010104141414141EA
:10460C00410101010101010101010101010101014E
:10461C0001010101011010101010104242424242DF
:10462C00420202020202020202020202020202021E
:10463C000202020202101010102000000000000004
:10464C00000000000000000000000000000000005E
:10465C00000000000000000000000000000000004E
:10466C00000000000000000000000000000000003E
:10467C00000000000000000000000000000000002E
:10468C00000000000000000000000000000000001E
:10469C00000000000000000000000000000000000E
:1046AC0000000000000000000000000000000000FE
:1046BC00000000000000000000000000D9040A08FF
:1046CC006D0E0A08351F0A0861220A0889220A0899
:1046DC0005290A08D1290A08152F0A08000000002C
:0446EC0000000000CA
:0846F00058F5FF7F01000000F6
:0446F80000000000BE
:1046FC0000D4854680430A0898430A08BC430A083C
:10470C001400002000000000000000000000000069
:10471C00000000000000000000000000000000008D
:10472C00000000000000000000000000000000007D
:10473C00000000000000000000000000000000006D
:10474C00000000000000000000000000000000005D
:10475C00000000000000000000000000000000004D
:04476C000000000049
:10477000FFFFFFFF00000102030405060708090A06
:104780000B0C0D0E0F101112131415161718191A01
:084790001B1C1D1E1F20280048
:044798007856341209
:04000005080A001CC9
:00000001FF
